{
  "transactions": [
    {
      "hash": "0x2a3a81c7c93c2b1939a281ba8c9f6bc4a6cdb7c0ddc8979247ca2f7917b6ccc1",
      "transactionType": "CALL",
      "contractName": "VRFCoordinatorV2",
      "contractAddress": "0x8103B0A8A00be2DDC778e6e7eaa21791Cd364625",
      "function": "createSubscription()",
      "arguments": [],
      "transaction": {
        "type": "0x02",
        "from": "0xe52ad553514b34a123c0e9de4934e2b2ea215898",
        "to": "0x8103b0a8a00be2ddc778e6e7eaa21791cd364625",
        "gas": "0x1558c",
        "value": "0x0",
        "data": "0xa21a23e4",
        "nonce": "0x7",
        "accessList": []
      },
      "additionalContracts": [],
      "isFixedGasLimit": false
    },
    {
      "hash": "0xcdfcccbf43dc4329d90f7e55e44e132f5d3eea4b0d708128200b62deef5854b9",
      "transactionType": "CALL",
      "contractName": "LinkToken",
      "contractAddress": "0x779877A7B0D9E8603169DdbD7836e478b4624789",
      "function": "transferAndCall(address,uint256,bytes)",
      "arguments": [
        "0x8103B0A8A00be2DDC778e6e7eaa21791Cd364625",
        "3000000000000000000",
        "0x0000000000000000000000000000000000000000000000000000000000001f92"
      ],
      "transaction": {
        "type": "0x02",
        "from": "0xe52ad553514b34a123c0e9de4934e2b2ea215898",
        "to": "0x779877a7b0d9e8603169ddbd7836e478b4624789",
        "gas": "0x1b43f",
        "value": "0x0",
        "data": "0x4000aea00000000000000000000000008103b0a8a00be2ddc778e6e7eaa21791cd36462500000000000000000000000000000000000000000000000029a2241af62c0000000000000000000000000000000000000000000000000000000000000000006000000000000000000000000000000000000000000000000000000000000000200000000000000000000000000000000000000000000000000000000000001f92",
        "nonce": "0x8",
        "accessList": []
      },
      "additionalContracts": [],
      "isFixedGasLimit": false
    },
    {
      "hash": "0x07627c23d4ade470d462517ba8654140c62008d34c2b4f91a113a1e7ef118919",
      "transactionType": "CREATE",
      "contractName": "Raffle",
      "contractAddress": "0x9b1E9E3AE0C7681d3c0Cd5d5a1FdCB9B3bc74C59",
      "function": null,
      "arguments": [
        "8082",
        "0x474e34a077df58807dbe9c96d3c009b23b3c6d0cce433e59bbf5b34f823bc56c",
        "30",
        "10000000000000000",
        "500000",
        "0x8103B0A8A00be2DDC778e6e7eaa21791Cd364625"
      ],
      "transaction": {
        "type": "0x02",
        "from": "0xe52ad553514b34a123c0e9de4934e2b2ea215898",
        "gas": "0xe816c",
        "value": "0x0",
        "data": "0x61016060405234801561001157600080fd5b50604051610d3d380380610d3d83398101604081905261003091610081565b6001600160a01b0316608081905260a05260e093909352610120919091526001600160401b039290921660c052610140919091526003805460ff191690554260005563ffffffff166101005261010c565b60008060008060008060c0878903121561009a57600080fd5b86516001600160401b03811681146100b157600080fd5b80965050602087015194506040870151935060608701519250608087015163ffffffff811681146100e157600080fd5b60a08801519092506001600160a01b03811681146100fe57600080fd5b809150509295509295509295565b60805160a05160c05160e051610100516101205161014051610bc361017a6000396000818160d6015261030701526000818161020a01526105d5015260006104d001526000610472015260006104980152600061050c01526000818161028301526102c50152610bc36000f3fe6080604052600436106100c25760003560e01c806353a2c19a1161007f57806391ad27b41161005957806391ad27b4146101fb578063c1c244e81461022e578063e55ae4e814610243578063fd6673f51461026357600080fd5b806353a2c19a146101a55780635f1b0fd8146101b95780636e04ff0d146101cd57600080fd5b806309bc33a7146100c7578063115cbaf5146101095780631fe543e3146101295780632cfcc5391461014b5780634585e33b14610153578063473f1ddc14610173575b600080fd5b3480156100d357600080fd5b507f00000000000000000000000000000000000000000000000000000000000000005b6040519081526020015b60405180910390f35b34801561011557600080fd5b5060035460ff16604051610100919061087c565b34801561013557600080fd5b506101496101443660046108eb565b610278565b005b610149610305565b34801561015f57600080fd5b5061014961016e36600461099d565b6103eb565b34801561017f57600080fd5b506001546001600160a01b03165b6040516001600160a01b039091168152602001610100565b3480156101b157600080fd5b5060016100f6565b3480156101c557600080fd5b5060036100f6565b3480156101d957600080fd5b506101ed6101e8366004610a0f565b6105ad565b604051610100929190610aa4565b34801561020757600080fd5b507f00000000000000000000000000000000000000000000000000000000000000006100f6565b34801561023a57600080fd5b506000546100f6565b34801561024f57600080fd5b5061018d61025e366004610afc565b610652565b34801561026f57600080fd5b506002546100f6565b336001600160a01b037f000000000000000000000000000000000000000000000000000000000000000016146102f75760405163073e64fd60e21b81523360048201526001600160a01b037f00000000000000000000000000000000000000000000000000000000000000001660248201526044015b60405180910390fd5b6103018282610682565b5050565b7f00000000000000000000000000000000000000000000000000000000000000003410156103465760405163181c600560e11b815260040160405180910390fd5b600060035460ff16600181111561035f5761035f610866565b1461037d5760405163349289c560e21b815260040160405180910390fd5b6002805460018101825560009182527f405787fa12a823e0f2b7631cc41b3ba8828b3321ca811111fa75cd3aa3bb5ace0180546001600160a01b0319163390811790915560405190917f0805e1d667bddb8a95f0f09880cf94f403fb596ce79928d9f29b74203ba284d491a2565b6000610405604051806020016040528060008152506105ad565b509050806104545760025460035447919060ff16600181111561042a5761042a610866565b604051632c2193d560e11b81526004810193909352602483019190915260448201526064016102ee565b6003805460ff1916600190811782556040516305d3b1d360e41b81527f000000000000000000000000000000000000000000000000000000000000000060048201527f000000000000000000000000000000000000000000000000000000000000000067ffffffffffffffff16602482015260448101929092527f000000000000000000000000000000000000000000000000000000000000000063ffffffff16606483015260848201526000906001600160a01b037f00000000000000000000000000000000000000000000000000000000000000001690635d3b1d309060a4016020604051808303816000875af1158015610555573d6000803e3d6000fd5b505050506040513d601f19601f820116820180604052508101906105799190610b15565b60405190915081907fcd6e45c8998311cab7e9d4385596cac867e20a0587194b954fa3a731c93ce78b90600090a250505050565b600354600090606090829060ff1660018111156105cc576105cc610866565b600014905060007f0000000000000000000000000000000000000000000000000000000000000000600054426106029190610b2e565b6002549110915015154715158280156106185750835b80156106215750805b801561062a5750815b60408051808201909152600381526203078360ec1b6020820152909890975095505050505050565b60006002828154811061066757610667610b55565b6000918252602090912001546001600160a01b031692915050565b60006002805490508260008151811061069d5761069d610b55565b60200260200101516106af9190610b6b565b90506000600282815481106106c6576106c6610b55565b6000918252602082200154600180546001600160a01b0319166001600160a01b039092169182179055915060405190808252806020026020018201604052801561071a578160200160208202803683370190505b50805161072f916002916020909101906107ec565b506003805460ff191690554260009081556040516001600160a01b038316917f5b690ec4a06fe979403046eaeea5b3ce38524683c3001f662c8b5a829632f7df91a26000816001600160a01b03164760405160006040518083038185875af1925050503d80600081146107be576040519150601f19603f3d011682016040523d82523d6000602084013e6107c3565b606091505b50509050806107e55760405163a1d04b3960e01b815260040160405180910390fd5b5050505050565b828054828255906000526020600020908101928215610841579160200282015b8281111561084157825182546001600160a01b0319166001600160a01b0390911617825560209092019160019091019061080c565b5061084d929150610851565b5090565b5b8082111561084d5760008155600101610852565b634e487b7160e01b600052602160045260246000fd5b602081016002831061089e57634e487b7160e01b600052602160045260246000fd5b91905290565b634e487b7160e01b600052604160045260246000fd5b604051601f8201601f1916810167ffffffffffffffff811182821017156108e3576108e36108a4565b604052919050565b600080604083850312156108fe57600080fd5b8235915060208084013567ffffffffffffffff8082111561091e57600080fd5b818601915086601f83011261093257600080fd5b813581811115610944576109446108a4565b8060051b91506109558483016108ba565b818152918301840191848101908984111561096f57600080fd5b938501935b8385101561098d57843582529385019390850190610974565b8096505050505050509250929050565b600080602083850312156109b057600080fd5b823567ffffffffffffffff808211156109c857600080fd5b818501915085601f8301126109dc57600080fd5b8135818111156109eb57600080fd5b8660208285010111156109fd57600080fd5b60209290920196919550909350505050565b60006020808385031215610a2257600080fd5b823567ffffffffffffffff80821115610a3a57600080fd5b818501915085601f830112610a4e57600080fd5b813581811115610a6057610a606108a4565b610a72601f8201601f191685016108ba565b91508082528684828501011115610a8857600080fd5b8084840185840137600090820190930192909252509392505050565b821515815260006020604081840152835180604085015260005b81811015610ada57858101830151858201606001528201610abe565b506000606082860101526060601f19601f830116850101925050509392505050565b600060208284031215610b0e57600080fd5b5035919050565b600060208284031215610b2757600080fd5b5051919050565b81810381811115610b4f57634e487b7160e01b600052601160045260246000fd5b92915050565b634e487b7160e01b600052603260045260246000fd5b600082610b8857634e487b7160e01b600052601260045260246000fd5b50069056fea2646970667358221220aab51cc95cea2e4052600e2af9747eda3f1d5c3b75f08ee2df83e93cd07befd264736f6c634300081300330000000000000000000000000000000000000000000000000000000000001f92474e34a077df58807dbe9c96d3c009b23b3c6d0cce433e59bbf5b34f823bc56c000000000000000000000000000000000000000000000000000000000000001e000000000000000000000000000000000000000000000000002386f26fc10000000000000000000000000000000000000000000000000000000000000007a1200000000000000000000000008103b0a8a00be2ddc778e6e7eaa21791cd364625",
        "nonce": "0x9",
        "accessList": []
      },
      "additionalContracts": [],
      "isFixedGasLimit": false
    },
    {
      "hash": "0x0197e505e1f393cecb8a91c76c7db9511c3cf5105117c5e48e81a4d03b73dfcc",
      "transactionType": "CALL",
      "contractName": "VRFCoordinatorV2",
      "contractAddress": "0x8103B0A8A00be2DDC778e6e7eaa21791Cd364625",
      "function": "addConsumer(uint64,address)",
      "arguments": [
        "8082",
        "0x9b1E9E3AE0C7681d3c0Cd5d5a1FdCB9B3bc74C59"
      ],
      "transaction": {
        "type": "0x02",
        "from": "0xe52ad553514b34a123c0e9de4934e2b2ea215898",
        "to": "0x8103b0a8a00be2ddc778e6e7eaa21791cd364625",
        "gas": "0x21eb0",
        "value": "0x0",
        "data": "0x7341c10c0000000000000000000000000000000000000000000000000000000000001f920000000000000000000000009b1e9e3ae0c7681d3c0cd5d5a1fdcb9b3bc74c59",
        "nonce": "0xa",
        "accessList": []
      },
      "additionalContracts": [],
      "isFixedGasLimit": false
    }
  ],
  "receipts": [
    {
      "transactionHash": "0x2a3a81c7c93c2b1939a281ba8c9f6bc4a6cdb7c0ddc8979247ca2f7917b6ccc1",
      "transactionIndex": "0x45",
      "blockHash": "0x2e8e913324accaedcb6a0b2bfb84a9b1c363822b6e6760db4bfe03b6e7154f00",
      "blockNumber": "0x4bb57b",
      "from": "0xe52Ad553514B34A123C0E9DE4934e2B2ea215898",
      "to": "0x8103B0A8A00be2DDC778e6e7eaa21791Cd364625",
      "cumulativeGasUsed": "0x5dadbd",
      "gasUsed": "0xe98a",
      "contractAddress": null,
      "logs": [
        {
          "address": "0x8103B0A8A00be2DDC778e6e7eaa21791Cd364625",
          "topics": [
            "0x464722b4166576d3dcbba877b999bc35cf911f4eaf434b7eba68fa113951d0bf",
            "0x0000000000000000000000000000000000000000000000000000000000001f92"
          ],
          "data": "0x000000000000000000000000e52ad553514b34a123c0e9de4934e2b2ea215898",
          "blockHash": "0x2e8e913324accaedcb6a0b2bfb84a9b1c363822b6e6760db4bfe03b6e7154f00",
          "blockNumber": "0x4bb57b",
          "transactionHash": "0x2a3a81c7c93c2b1939a281ba8c9f6bc4a6cdb7c0ddc8979247ca2f7917b6ccc1",
          "transactionIndex": "0x45",
          "logIndex": "0x70",
          "removed": false
        }
      ],
      "status": "0x1",
      "logsBloom": "0x0000000000000000000001000000000000000008000000000000000000000000010000000000000000000000000000000000000000000000000000000000000000000000000000000000000000000000001000000000000000000000000000000000000000000000000000000000000000000000000000000000000000000000000000000c000020000000000000000000000000000000000000000000000000000000000000000000000000000000000000000000000000000000000000000000000000000000200200000000000000000000000000000000000000000000000000000000000000000000000000000000000000000000000000000000000000",
      "type": "0x2",
      "effectiveGasPrice": "0x5cc4063c2"
    },
    {
      "transactionHash": "0xcdfcccbf43dc4329d90f7e55e44e132f5d3eea4b0d708128200b62deef5854b9",
      "transactionIndex": "0x46",
      "blockHash": "0x2e8e913324accaedcb6a0b2bfb84a9b1c363822b6e6760db4bfe03b6e7154f00",
      "blockNumber": "0x4bb57b",
      "from": "0xe52Ad553514B34A123C0E9DE4934e2B2ea215898",
      "to": "0x779877A7B0D9E8603169DdbD7836e478b4624789",
      "cumulativeGasUsed": "0x5ed807",
      "gasUsed": "0x12a4a",
      "contractAddress": null,
      "logs": [
        {
          "address": "0x779877A7B0D9E8603169DdbD7836e478b4624789",
          "topics": [
            "0xddf252ad1be2c89b69c2b068fc378daa952ba7f163c4a11628f55a4df523b3ef",
            "0x000000000000000000000000e52ad553514b34a123c0e9de4934e2b2ea215898",
            "0x0000000000000000000000008103b0a8a00be2ddc778e6e7eaa21791cd364625"
          ],
          "data": "0x00000000000000000000000000000000000000000000000029a2241af62c0000",
          "blockHash": "0x2e8e913324accaedcb6a0b2bfb84a9b1c363822b6e6760db4bfe03b6e7154f00",
          "blockNumber": "0x4bb57b",
          "transactionHash": "0xcdfcccbf43dc4329d90f7e55e44e132f5d3eea4b0d708128200b62deef5854b9",
          "transactionIndex": "0x46",
          "logIndex": "0x71",
          "removed": false
        },
        {
          "address": "0x779877A7B0D9E8603169DdbD7836e478b4624789",
          "topics": [
            "0xe19260aff97b920c7df27010903aeb9c8d2be5d310a2c67824cf3f15396e4c16",
            "0x000000000000000000000000e52ad553514b34a123c0e9de4934e2b2ea215898",
            "0x0000000000000000000000008103b0a8a00be2ddc778e6e7eaa21791cd364625"
          ],
          "data": "0x00000000000000000000000000000000000000000000000029a2241af62c0000000000000000000000000000000000000000000000000000000000000000004000000000000000000000000000000000000000000000000000000000000000200000000000000000000000000000000000000000000000000000000000001f92",
          "blockHash": "0x2e8e913324accaedcb6a0b2bfb84a9b1c363822b6e6760db4bfe03b6e7154f00",
          "blockNumber": "0x4bb57b",
          "transactionHash": "0xcdfcccbf43dc4329d90f7e55e44e132f5d3eea4b0d708128200b62deef5854b9",
          "transactionIndex": "0x46",
          "logIndex": "0x72",
          "removed": false
        },
        {
          "address": "0x8103B0A8A00be2DDC778e6e7eaa21791Cd364625",
          "topics": [
            "0xd39ec07f4e209f627a4c427971473820dc129761ba28de8906bd56f57101d4f8",
            "0x0000000000000000000000000000000000000000000000000000000000001f92"
          ],
          "data": "0x000000000000000000000000000000000000000000000000000000000000000000000000000000000000000000000000000000000000000029a2241af62c0000",
          "blockHash": "0x2e8e913324accaedcb6a0b2bfb84a9b1c363822b6e6760db4bfe03b6e7154f00",
          "blockNumber": "0x4bb57b",
          "transactionHash": "0xcdfcccbf43dc4329d90f7e55e44e132f5d3eea4b0d708128200b62deef5854b9",
          "transactionIndex": "0x46",
          "logIndex": "0x73",
          "removed": false
        }
      ],
      "status": "0x1",
      "logsBloom": "0x0000001400000000000000000000000000000008000000020000000002000000000000000000800000000000000000000000000000000000000000000000000000000000000000000000000800000000001000000000000000002000000000000000000000000000000000000000000000000000400000000000001000000000001000000c000020000000000000800010000020000000000000000000000000000000000000000000000000000000000000000000000000000400000000000000000002000000000200010000000080000000000000000100000000000000000000000000000000000000000000000000000000000000000000000000000000",
      "type": "0x2",
      "effectiveGasPrice": "0x5cc4063c2"
    },
    {
      "transactionHash": "0x07627c23d4ade470d462517ba8654140c62008d34c2b4f91a113a1e7ef118919",
      "transactionIndex": "0x47",
      "blockHash": "0x2e8e913324accaedcb6a0b2bfb84a9b1c363822b6e6760db4bfe03b6e7154f00",
      "blockNumber": "0x4bb57b",
      "from": "0xe52Ad553514B34A123C0E9DE4934e2B2ea215898",
      "to": null,
      "cumulativeGasUsed": "0x6a0162",
      "gasUsed": "0xb295b",
      "contractAddress": "0x9b1E9E3AE0C7681d3c0Cd5d5a1FdCB9B3bc74C59",
      "logs": [],
      "status": "0x1",
      "logsBloom": "0x00000000000000000000000000000000000000000000000000000000000000000000000000000000000000000000000000000000000000000000000000000000000000000000000000000000000000000000000000000000000000000000000000000000000000000000000000000000000000000000000000000000000000000000000000000000000000000000000000000000000000000000000000000000000000000000000000000000000000000000000000000000000000000000000000000000000000000000000000000000000000000000000000000000000000000000000000000000000000000000000000000000000000000000000000000000",
      "type": "0x2",
      "effectiveGasPrice": "0x5cc4063c2"
    },
    {
      "transactionHash": "0x0197e505e1f393cecb8a91c76c7db9511c3cf5105117c5e48e81a4d03b73dfcc",
      "transactionIndex": "0x48",
      "blockHash": "0x2e8e913324accaedcb6a0b2bfb84a9b1c363822b6e6760db4bfe03b6e7154f00",
      "blockNumber": "0x4bb57b",
      "from": "0xe52Ad553514B34A123C0E9DE4934e2B2ea215898",
      "to": "0x8103B0A8A00be2DDC778e6e7eaa21791Cd364625",
      "cumulativeGasUsed": "0x6b7474",
      "gasUsed": "0x17312",
      "contractAddress": null,
      "logs": [
        {
          "address": "0x8103B0A8A00be2DDC778e6e7eaa21791Cd364625",
          "topics": [
            "0x43dc749a04ac8fb825cbd514f7c0e13f13bc6f2ee66043b76629d51776cff8e0",
            "0x0000000000000000000000000000000000000000000000000000000000001f92"
          ],
          "data": "0x0000000000000000000000009b1e9e3ae0c7681d3c0cd5d5a1fdcb9b3bc74c59",
          "blockHash": "0x2e8e913324accaedcb6a0b2bfb84a9b1c363822b6e6760db4bfe03b6e7154f00",
          "blockNumber": "0x4bb57b",
          "transactionHash": "0x0197e505e1f393cecb8a91c76c7db9511c3cf5105117c5e48e81a4d03b73dfcc",
          "transactionIndex": "0x48",
          "logIndex": "0x74",
          "removed": false
        }
      ],
      "status": "0x1",
      "logsBloom": "0x0000000000000000000000000000000000000008000000000000000000000000000000000000000000000000000000000000000000000000000000000000000000000000000000000000000000000000001000000000000000000000000000000000000000008000000000000000000000000000000000000000000000000000000000000c000020000000000000000000000000000000000000000000000000000000000000000000000080000000000000000000000000000000000000000000000000000000000200000000000000000000000000000000020000000000000000000000000000000000000000000000000000000000000000000000000000",
      "type": "0x2",
      "effectiveGasPrice": "0x5cc4063c2"
    }
  ],
  "libraries": [],
  "pending": [],
  "returns": {
    "0": {
      "internal_type": "contract Raffle",
      "value": "0x9b1E9E3AE0C7681d3c0Cd5d5a1FdCB9B3bc74C59"
    },
    "1": {
      "internal_type": "contract HelperConfig",
      "value": "0xC7f2Cf4845C6db0e1a1e91ED41Bcd0FcC1b0E141"
    }
  },
  "timestamp": 1703600862,
  "chain": 11155111,
  "multi": false,
  "commit": "f62a8e3"
}